:10000000803102288731F32F1530F7008130F80056
:100010008D31A02580317B08860087017708C03F9D
:100020007808C13F1730F7008130F8008D31A025E6
:100030007C08860087017708C03F7808C13F080028
:100040000130F3020030F43B730A031D4F28740A99
:10005000031D4F28F001F1010800710884007208A7
:1000600085001200031955287308740403195528D4
:1000700071088400720885000008F5007008860089
:10008000870101087506031D55280130F00701306E
:10009000F1070030F23D0130F3020030F43B70080C
:1000A000860087010108031D2D287008860087013E
:1000B000710884007208850000080102F000F10157
:1000C000031CF103080044010C08FC3901388C00C2
:1000D0008C170C1F6928F0012030F1000030F2006D
:1000E0003E308D31E825803171084001AE00700846
:1000F000AD0044018C1340012D082E04031D8328FC
:10010000FC01FD0108002D08A0002E08A100A2019D
:10011000A3017C08F0007D08F100F201F30100303A
:10012000F7000030F6000330F500FF30F4008F31A7
:100130004D27803173084001A7007208A60071089E
:10014000A5007008A4008031AA202108FD00200825
:10015000FC0008000030AB000030AA000030A9000D
:100160000030A80023082204210420040319F128E8
:100170000130AC00A31BC6280130A035A10DA20D93
:10018000A30D890BBD280130AC07BA280130A83572
:10019000A90DAA0DAB0D890BC72823082702031D43
:1001A000DB2822082602031DDB2821082502031D67
:1001B000DB2820082402031CE6282008A4022108CA
:1001C000A53B2208A63B2308A73B28140130A336F1
:1001D000A20CA10CA00C890BE7280130AC02031D76
:1001E000C6282B08A3002A08A2002908A100280875
:1001F000A0000800F701F21F0729F009F109F20930
:10020000F00A0319F10A0319F20A0130F700F51F89
:100210001329F309F409F509F30A0319F40A031978
:10022000F50A0130F7060030F8000030F900003020
:10023000FA0072087104700403194E290130F600A7
:10024000F21B2B290130F035F10DF20D890B23291A
:100250000130F60720290130F835F90DFA0D890B28
:100260002C2972087502031D3B2971087402031DB5
:100270003B2970087302031C44297008F3027108BB
:10028000F43B7208F53B78140130F236F10CF00CB7
:10029000890B45290130F602031D2B297708031924
:1002A0005929F809F909FA09F80A0319F90A031989
:1002B000FA0A7808F0007908F1007A08F2000800DC
:1002C000AA01F81F6529013066290030A700270818
:1002D000031D6F297808A9007708A8007A297709F3
:1002E000FA007809FB00FA0A0319FB0A7A08A80049
:1002F0007B08A90028082904031D82293030A000AA
:100300000130AA07280829040319AA292A08203E2F
:10031000860087010A30F0000030F1002908F30060
:100320002808F2008E31F82681317008303E8100B5
:100330000130AA070A30F0000030F1002908F3006C
:100340002808F2008F317C2781317108A9007008DC
:10035000A800822927080319B5292A08203E86000B
:1003600087012D3081000130AA072A080319C62908
:100370000130AA027908860087012A08203E8400FD
:100380008501000881000130F907B5297908860048
:10039000870181010800AA010030AE000030AD00E5
:1003A0000030AC000030AB007C08860087012D30A7
:1003B0000106031DDF290130AA000130FC077C087B
:1003C000860087010108031D382A003008007C08D8
:1003D0008600870130300102031CE5297C08860075
:1003E00087013A3001020318E5297C08860087015D
:1003F0000108D03E4001A000FF3003180030A100EA
:100400002008A2002108A300A401A5012E08F300E2
:100410002D08F2002C08F1002B08F0000030F70046
:100420000030F6000030F5000A30F4008F314D271F
:10043000813170084001A2077108A33D7208A43DF4
:100440007308A53D2508AE002408AD002308AC00C4
:100450002208AB00AE1B362A2E08031DE5292D0805
:10046000031DE52980302C020318E5290130FC0723
:100470007C08860087010108031DE72940012A083E
:10048000031D4B2A2E08A9002D08A8002C08A70040
:100490002B08A6005A2A2B09A6002C09A7002D0913
:1004A000A8002E09A900A60A0319A70A0319A80A79
:1004B0000319A90A7D08860087012608C03F27087E
:1004C000C13F013008003430A0001230A100FF30DD
:1004D000410148054001A2003F304101490540016A
:1004E000A300FF3041014A054001A4003F30410113
:1004F0004B054001A500FF3041014C054001A6001D
:100500003F3041014D054001A700FF3041014E053C
:100510004001A8003F3041014F054001A900FF30D4
:10052000410150054001AA003F3041015105400101
:10053000AB00FF30410152054001AC003F304101AA
:1005400053054001AD00FF30410154054001AE00AC
:100550003F30410155054001AF00FF3041015605D4
:100560004001B0003F30410157054001B100FF306C
:10057000410158054001B2003F3041015905400199
:10058000B300FF3041015A054001B4003F30410142
:100590005B054001B500FF3041015C054001B6003C
:1005A0003F3041015D054001B700FF3041015E056C
:1005B0004001B8003F3041015F054001B9002230E1
:1005C000F0000C30F1008E31852682317108BB00BD
:1005D0007008BA00E030F0000F30F1008D31532583
:1005E0008231E030F0000F30F1002030F2000E30A8
:1005F000F3008F31AE2708002C30FB002E30FC00BA
:1006000080310420823144010C08FC3902388C000E
:100610008C160C168C170C1F0B2B4001AA01AB017A
:10062000B0010330F0002030F1000030F2003B3028
:100630008D31E825823170084001AA077108AB3D71
:100640000130B0070A303002031C112B0A30F000D1
:100650000030F1002B08F3002A08F2008F317C27CC
:1006600082317108A9007008A80044018C128C1313
:1006700040012808F0002908F100F2012C08F300DD
:100680002D08F400890D893B8909F5008E31AA26D1
:1006900082317008B1007108B2007208B3000030F6
:1006A000F0000130F1000030F2003108F3003208B0
:1006B000F4003308F5008031FA2082317008B1006F
:1006C0007108B2007208B3003108A2003208A3001A
:1006D0003308A4002E08A5002F08A6000030A61B92
:1006E000FF30A7002508A2072608A33D2708A43D40
:1006F0002208B1002308B2002408B3000A30F00039
:100700000030F1000030F2003108F3003208F4004C
:100710003308F5008031FA207008B1007108B2008A
:100720007208B3003208A1003108A0000800E030D0
:10073000F0000F30F100F2018D318B258331343020
:1007400070061230031971060319B52B603084004E
:1007500088308500C8308600003087001830F900E6
:1007600012001E00F90BB02B08004001BA013A0834
:10077000E13EF0000F3003181030F100F2018D312E
:100780008B25833140013A35203E86008701700871
:10079000C03F7108C13F0130BA070C303A02031C58
:1007A000B72BED30F0000F30F100F2018D318B25C9
:1007B000833171084001B9007008B8002030F000A2
:1007C0000C30F1008E318526833139087106031D06
:1007D000EB2B38087006031DA62BE130F5000F3017
:1007E000F6008D31B625833176084101C9007508C0
:1007F000C800E230F5000F30F6008D31B6258331A8
:1008000076084101CB007508CA00E330F5000F30CF
:10081000F6008D31B625833176084101CD0075088B
:10082000CC00E430F5000F30F6008D31B625833171
:1008300076084101CF007508CE00E530F5000F3095
:10084000F6008D31B625833176084101D100750857
:10085000D000E630F5000F30F6008D31B62583313B
:1008600076084101D3007508D200E730F5000F305B
:10087000F6008D31B625833176084101D500750823
:10088000D400E830F5000F30F6008D31B625833105
:1008900076084101D7007508D600E930F5000F3021
:1008A000F6008D31B625833176084101D9007508EF
:1008B000D800EA30F5000F30F6008D31B6258331CF
:1008C00076084101DB007508DA00EB30F5000F30E7
:1008D000F6008D31B625833176084101DD007508BB
:1008E000DC00EC30F5000F30F6008D31B6257608CF
:1008F0004101DF007508DE000800E001E101DF01D1
:10090000D8010030D7000030D6000030D5000030CC
:10091000D4008331972384314001980118157D015B
:100920008D014001121112128D31CD2584318E318D
:100930000526843178084001E3007708E200410190
:100940005F08F1005E08F0008D311C258431400104
:100950001811921241015908F1005808F0008D3128
:100960001C258431400192161F3043018C00640025
:100970004E01121B9214630000004101901FC62C0F
:100980004E010C088531D0258431B72C5D08803AA2
:100990004001D30080305302031DD12C01304101AE
:1009A0005C02031C0C2D20304001D4070030D53DE3
:1009B000D63DD73D41015C08F0005D08F100890D8E
:1009C000893B8909F200F3000030F7000130F6009E
:1009D0005130F5008030F4008F314D278431730899
:1009E00040015702031DFE2C72085602031DFE2C07
:1009F00071085502031DFE2C70085402031C0C2DB7
:100A00000030D7000030D6000030D5000030D400D0
:100A10008D3110258431B72C40016308FD00620838
:100A2000FC008031632084317D08DC007C08DB0021
:100A30008231FC228431C830860000308700523178
:100A4000403F2007DD00413F213DDE000130D9005D
:100A50005E08803AD30041015508803A40015302B4
:100A6000031D362D4101540840015D020318492D34
:100A700041015708803A4001D3005E08803A530292
:100A8000031D452D5D08410156020318492D400103
:100A9000D9014001590803194F2D0130502D003064
:100AA000DA005A0803195A2D181518160130DF00FC
:100AB0004001742D5E08F1005D08F0008E312326A0
:100AC000843158080319772D4101490840015C021F
:100AD000031D6E2D4101480840015B02031C742D6B
:100AE0008D3129258431DF01E001E101CD2D410166
:100AF000490840015C02031D812D41014808400165
:100B00005B020318A22DE101600A0319892D01304F
:100B1000E0075F08031DCD2D41014D08F1004C0891
:100B2000F0008D314325843140016008D300710805
:100B3000031D9C2D70085302031CCD2D1815013088
:100B4000DF00CD2D5C0841014B02031DAB2D4001A0
:100B50005B0841014A020318582D4001E001610A77
:100B60000319B42D0130E1075F080319CD2D4101B0
:100B70004F08F1004E08F0008D31432584314001CB
:100B80006108D3007108031DC72D70085302031CB0
:100B9000CD2D8D3129258431DF015A08D800B72C9D
:100BA0008F31222785314001CD004D0803190800FF
:100BB000A030F0008E3143268531A030F00048305F
:100BC000F1008930F2000430F3000030F40080318D
:100BD0002020853170087104031D1C2FA4304001B2
:100BE000D1005108F0005230F1008930F2008E310E
:100BF000D02685317008710403190B2E5108F000BE
:100C0000D730F1008830F2008E31D026853170085F
:100C10007104031D3A2E8231FC228531C8308600D2
:100C2000003087005231403F2007C900413F213D3D
:100C3000CA004A08F8004908F7004130F90081313C
:100C4000602185315108F100F2018D317725853120
:100C50003D308D31092585314130F1000030F20001
:100C60008D31772585311730F1008930F2008D31D3
:100C7000772508005108F0002D30F1008930F2008E
:100C80008E31D0268531700871040319542E510815
:100C9000F000EC30F1008830F2008E31D026853142
:100CA00070087104031D802E6308FD006208FC00BB
:100CB0008031632085317D08CC007C08CB004C0856
:100CC000F8004B08F7004130F9008131602185318F
:100CD0005108F100F2018D31772585313D308D319C
:100CE000092585314130F1000030F2008D31772542
:100CF00085311730F1008930F2008D3177250800F9
:100D00005108F0003530F1008930F2008E31D026E4
:100D100085317008710403199A2E5108F00057307C
:100D2000F1008930F2008E31D026853170087104CF
:100D3000031DA72E5108F100F2018D317725853171
:100D40001030F1008930F2008D3177250800D20192
:100D50005108F0005208BC00BD01BC35BD0DBC35CA
:100D6000BD0DBC35BD0D00303C07840008303D3D55
:100D700080388500003FF100013FF2008E31D0261F
:100D8000853170087104031D0F2F5208BC00BD018E
:100D9000BC35BD0DBC35BD0DBC35BD0D02303C07AD
:100DA000840008303D3D80388500003FBE00013F93
:100DB000BF003E0886003F088700403FF700413FE4
:100DC000F8004130F9008131602185315208BC00C2
:100DD000BD01BC35BD0DBC35BD0DBC35BD0D0030F4
:100DE0003C07840008303D3D80388500003FF1001D
:100DF000013FF2008D31772585313D308D31092558
:100E000085314130F1000030F2008D317725853198
:100E10001730F1008930F2008D317725080001305C
:100E2000D2070C305202031CA82E3D30F10089304D
:100E3000F2008D3177250800A030F0004D30F10030
:100E40008930F2000430F3000030F40080312020BB
:100E5000853170087104031DEC2FA430F0002030A0
:100E6000F1000030F2008D31652585314001CE0062
:100E70004E08031D422F3D30F1008930F2008D31C4
:100E8000772508004E08860087018101D201A43031
:100E9000F0005208BC00BD01BC35BD0DBC35BD0D18
:100EA000BC35BD0D00303C07840008303D3D803826
:100EB0008500003FF100013FF2008E31D0268531E0
:100EC00070087104031DDF2F4E08013EFC004F30F7
:100ED000FD008131CB218531003A0319D82F400123
:100EE0005208BC00BD01BC35BD0DBC35BD0DBC35C7
:100EF000BD0D04303C07840008303D3D803885003E
:100F0000003FBE00013FBF005008803AC0003F08CC
:100F1000803A4002031D8E2F3E084F02031CD82F3B
:100F200040015208BC00BD01BC35BD0DBC35BD0D36
:100F3000BC35BD0D06303C07840008303D3D80388F
:100F40008500003FBE00013FBF003F08803AC0005F
:100F50005008803A4002031DAF2F4F083E02031C89
:100F6000D82F40015208BC00BD01BC35BD0DBC35B9
:100F7000BD0DBC35BD0D02303C07840008303D3D41
:100F800080388500003FBE00013FBF003E0886005C
:100F90003F0887004F08C03F5008C13F823163229D
:100FA00085314330F1008930F2008D31772508001A
:100FB0003D30F1008930F2008D3177250800013095
:100FC000D2070C305202031C472F3D30F10089300C
:100FD000F2008D31772508003D30F1008930F200B4
:100FE0008D31772508004001E201E301A030840043
:100FF0000030850040308D310325400184317D2C47
:1010000005348934C834003400340034FF341F34CC
:10101000E3348834CA34003400340034FF341F34DD
:101020001A348934CC34003400340034E0341F34B2
:10103000FA348834CE34003400340034E0341F34C1
:10104000EF348834D03400340034E034FF341F34BB
:10105000CB348834D23400340034E034FF341F34CD
:1010600078348834D43400340034E034FF341F340E
:101070008B348834D63400340034E034FF341F34E9
:10108000AE348834D834003400340034FF341F3494
:10109000BD348834DA3400340034E034FF341F3493
:1010A00024348934DC34003400340034FF341F34F9
:1010B0009D348834DE34003400340034FF341F346F
:1010C000E4340C34D8340E34583402340034003450
:1010D000003400342F34003441340034EC34FF3415
:1010E000E8340334FE34FF340034003488341334DD
:1010F000543445344D3450345F34443441344E34E8
:101100004734453452345F344834493447344834E2
:101110005F3443340034543445344D3450345F34F8
:10112000443441344E344734453452345F344C34C3
:101130004F3457345F3443340034423441345434F0
:101140005F344334553454345F34503455344C3464
:10115000533445345F344D345334003452344534C1
:101160005334453454345F34503455344C34533450
:1011700045345F344D3453340034543445344D34A5
:1011800050345F344F344634463453344534543449
:101190005F3443340034543445344D3450345F3478
:1011A00048344934473448345F3443340034543489
:1011B00045344D345034453452344134543455342C
:1011C0005234453400344234413454345F3448346A
:1011D0004934473448345F344D3456340034543441
:1011E00045344D3450345F344C344F3457345F34CD
:1011F000433400344234413454345F344834493445
:10120000473448345F345334003442344134543426
:101210005F344C344F3457345F344D3456340034DB
:101220003D34763438342E3432342E3434340D3464
:101230000A3400344234413454345F344C344F3433
:1012400057345F34533400345234453442344F34CD
:101250004F3454345F344434003456344F344C34B7
:1012600054344134473445340034563445345234D0
:10127000533449344F344E340034453452345234AC
:101280000D340A3400344F344B340D340A340034F6
:1012900047344534543420340034533445345434C2
:1012A00020340034543445344D34503400345634F2
:0612B00045345234003405
:101A0600640080010131890B042D0034F0004E0181
:101A1600911C0A2D70088D000800181541015F08F9
:101A2600F1005E08F0008D311C258D318D312925A0
:101A3600080070087104031908005330890B212D22
:101A460000000130F0020030F13B1C2D400118115E
:101A5600921241015908F1005808F0008D311C25F9
:101A66004001921608007608F1007508F000F201B0
:101A7600F20A8D318B257108F6007008F500080012
:101A860070081F3EF2000030713DF3000530F3365A
:101A9600F20C890B4A2D7208F0007308F100080059
:101AA6007901101371088D0070088C00101610153E
:101AB6008B1355309100AA30910090148B17101299
:101AC6001011080070088600870101087106031DC1
:101AD6006E2D70080800700886008701F00A01085C
:101AE600031D652D0030080071088400720885000A
:101AF60012000319080071088400720885000008A6
:101B06008D3109258D310130F1070030F23D772DF9
:101B1600720C7901031C10130318101771088D003D
:101B260070088C0010140F08F4000E08F300101350
:101B36007408F1007308F00008007808F6007708CA
:101B4600F5008D3136258D317608FA007508F900D5
:101B5600FA1EB12D0030F904C030FA047A08F800F4
:101B66007908F70008007608F1007508F000F20120
:101B76008D318B258D317108F8007008F700F81E3D
:101B8600C82D0030F704C030F8047808F60077084E
:101B9600F50008007D010C108C1040011210921403
:101BA60013307B018C0001307C01C20000304E01F5
:101BB6008F000C308E001112111192119017101611
:101BC600911641019A170B170800F5007A012608AD
:101BD600F3390438A60026167008AB0075089F0076
:101BE6007208A2007108A100A61726142618F92D5E
:101BF6001E08F4001D08F300A6137408F10073080C
:101C0600F00008001830F5008130F6008D313625D9
:101C16008E317608FA007508F90079087A040319F6
:101C26001A2E790A3F3003197A06031D1E2E00303C
:101C3600F9000430FA007A08F8007908F70008007D
:101C46007108803AF20041015108803A7202031D80
:101C56002E2E50087002031C3D2E41015308803A77
:101C6600F2007108803A7202031D3B2E7008520280
:101C76000318402E400118160800400118120800EB
:101C8600700886008701010803190800700886009D
:101C9600870161300102031C602E700886008701EF
:101CA6007B3001020318602E7008860087017008D9
:101CB600840085010008E03E81000130F007432ED4
:101CC600F430F1000130F2004101901B792E7108C9
:101CD6007204031D702E003008005330890B712EDC
:101CE60000000130F1020030F23B672E70088600DA
:101CF60087014E010C088100901C832E10121016CD
:101D060001300800F501F601F701710877020318A2
:101D1600A32E7708F2000130F235890B8F2E70085A
:101D2600720786008701403FF300413FF4007508C3
:101D36007307F5007608743DF6000130F707882E24
:101D4600FF307505F0003F307605F10008000030E1
:101D5600F6000030F7000030F800701CB82E73084B
:101D6600F6077408F73D7508F83D0130F335F40DB4
:101D7600F50D890BB92E0130F236F10CF00C890BFA
:101D8600BF2E720871047004031DB02E7608F00091
:101D96007708F1007808F2000800DD2E700886004A
:101DA600870101080319EA2E0130F0070130F10717
:101DB6000030F23D71088400720885000008F300C7
:101DC600700886008701010873060319D12E700872
:101DD60086008701710884007208850000080102E8
:101DE600F000F101031CF1030800700871040319E7
:101DF6001D2F0130F400F11B082F0130F035F10DD5
:101E0600890B012F0130F407FE2E71087302031DA2
:101E16000E2F70087202031C142F7008F20271084C
:101E2600F33B0130F136F00C890B152F0130F4022B
:101E3600031D082F7308F1007208F0000800F40172
:101E46007330F0008E3163268F31003A03194B2F21
:101E560064000D3073060319342F0A307306031D10
:101E66003E2F74080319232F7408A03E86008701AD
:101E7600810174080800273074020318232F7408A0
:101E8600A03E86008701730881000130F407232FE6
:101E9600003008000030FB000030FA000030F90086
:101EA6000030F800701C5F2F7408F8077508F93DBC
:101EB6007608FA3D7708FB3D0130F435F50DF60D51
:101EC600F70D890B602F0130F336F20CF10CF00C94
:101ED600890B672F7308720471047004031D552F54
:101EE6007B08F3007A08F2007908F1007808F00020
:101EF6000800F401F501700871040319A92F0130D7
:101F0600F600F11B8E2F0130F035F10D890B872F6E
:101F16000130F607842F0130F435F50D890B8F2F2C
:101F260071087302031D992F70087202031CA02FFB
:101F36007008F2027108F33B74140130F136F00CAC
:101F4600890BA12F0130F602031D8E2F7508F100B3
:101F56007408F0000800101310159016F6017308A7
:101F660076020318DE2F76087007F400710803184E
:101F7600710AF50074088C0075088D007608F40067
:101F86000130F435890BC42F720874078600870167
:101F9600403F8E00413F8F007308FF3E76060319CF
:101FA60090128B1355309100AA30910090148B1724
:0A1FB6000130F607B22F10110800E9
:020000040001F9
:08000E00EC1F3F3FBF07FF3F5D
:00000001FF
