:10000000803102288731F32F7D08F8007C08F70043
:100010002B30F9008031142080312B30F10000307A
:10002000F2008C311B2408004001AA01F81F1A2895
:1000300001301B280030A7002708031D242878085A
:10004000A9007708A8002F287709FA007809FB0093
:10005000FA0A0319FB0A7A08A8007B08A9002808F5
:100060002904031D37283030A0000130AA072808D2
:10007000290403195F282A08203E860087010A30D8
:10008000F0000030F1002908F3002808F2008D315B
:10009000B82580317008303E81000130AA070A304F
:1000A000F0000030F1002908F3002808F2008E313A
:1000B0003C2680317108A9007008A800372827085D
:1000C00003196A282A08203E860087012D30810006
:1000D0000130AA072A0803197B280130AA027908EF
:1000E000860087012A08203E8400850100088100DF
:1000F0000130F9076A287908860087018101080024
:10010000AA010030AE000030AD000030AC0000307D
:10011000AB007C08860087012D300106031D942862
:100120000130AA000130FC077C0886008701010825
:10013000031DED28003008007C0886008701303060
:100140000102031C9A287C08860087013A300102CC
:1001500003189A287C08860087010108D03E4001D8
:10016000A000FF3003180030A1002008A2002108E1
:10017000A300A401A5012E08F3002D08F2002C080D
:10018000F1002B08F0000030F7000030F6000030DE
:10019000F5000A30F4008E310D26803170084001E0
:1001A000A2077108A33D7208A43D7308A53D250868
:1001B000AE002408AD002308AC002208AB00AE1B43
:1001C000EB282E08031D9A282D08031D9A2880303D
:1001D0002C0203189A280130FC077C08860087014E
:1001E0000108031D9C2840012A08031D00292E0830
:1001F000A9002D08A8002C08A7002B08A6000F298D
:100200002B09A6002C09A7002D09A8002E09A9007A
:10021000A60A0319A70A0319A80A0319A90A7D083F
:10022000860087012608C03F2708C13F013008002B
:100230002C30FB002E30FC008C318C2481314401A9
:100240000C08FC3902388C008C160C168C170C1F0D
:1002500027294001AA01AB01B0010330F000203092
:10026000F1000030F2003B308C31A824813170085D
:100270004001AA077108AB3D0130B0070A303002D7
:10028000031C2D290A30F0000030F1002B08F30088
:100290002A08F2008E313C2681317108A9007008CD
:1002A000A80044018C128C1340012808F000290892
:1002B000F100F2012C08F3002D08F400890D893BB0
:1002C0008909F5008D316A2581317008B100710806
:1002D000B2007208B3000030F0000130F1000030CD
:1002E000F2003108F3003208F4003308F5008F31D2
:1002F0007A2781317008B1007108B2007208B3002A
:100300003108A2003208A3003308A4002E08A5007B
:100310002F08A6000030A61BFF30A7002508A20763
:100320002608A33D2708A43D2208B1002308B200F7
:100330002408B3000A30F0000030F1000030F20071
:100340003108F3003208F4003308F5008F317A27C2
:100350007008B1007108B2007208B3003208A10041
:100360003108A00008003430A0001230A100FF3096
:10037000410148054001A2003F30410149054001CB
:10038000A300FF3041014A054001A4003F30410174
:100390004B054001A500FF3041014C054001A6007E
:1003A0003F3041014D054001A700FF3041014E059E
:1003B0004001A8003F3041014F054001A900FF3036
:1003C000410150054001AA003F3041015105400163
:1003D000AB00FF30410152054001AC003F3041010C
:1003E00053054001AD00FF30410154054001AE000E
:1003F0003F30410155054001AF00FF304101560536
:100400004001B0003F30410157054001B100FF30CD
:10041000410158054001B2003F30410159054001FA
:10042000B300FF3041015A054001B4003F304101A3
:100430005B054001B500FF3041015C054001B6009D
:100440003F3041015D054001B700FF3041015E05CD
:100450004001B8003F3041015F054001B900FF3065
:10046000410160054001BA003F3041016105400192
:10047000BB00FF30410162054001BC003F3041013B
:1004800063054001BD002230F0000E30F1008D31D7
:10049000452581317108BF007008BE00E030F000D2
:1004A0000F30F1008B31F7238131E030F0000F3055
:1004B000F1002030F2001030F3008E316E2608007B
:1004C000E030F0000F30F100F2018C312F24823146
:1004D0003430700612300319710603197E2A703009
:1004E000840088308500C8308600003087001C30CA
:1004F000F90012001E00F90B792A08004001BE0124
:100500003E08E13EF0000F3003181030F100F20118
:100510008C312F24823140013E35203E86008701F8
:100520007008C03F7108C13F0130BE070E303E0267
:10053000031C802AEF30F0000F30F100F2018C3103
:100540002F24823171084001BD007008BC002030AA
:10055000F0000E30F1008D31452582313D087106E5
:10056000031DB42A3C087006031D6F2AE130F50014
:100570000F30F6008C315A24823176084101C900CF
:100580007508C800E230F5000F30F6008C315A24AF
:10059000823176084101CB007508CA00E330F500CE
:1005A0000F30F6008C315A24823176084101CD009B
:1005B0007508CC00E430F5000F30F6008C315A2479
:1005C000823176084101CF007508CE00E530F50094
:1005D0000F30F6008C315A24823176084101D10067
:1005E0007508D000E630F5000F30F6008C315A2443
:1005F000823176084101D3007508D200E730F5005A
:100600000F30F6008C315A24823176084101D50032
:100610007508D400E830F5000F30F6008C315A240C
:10062000823176084101D7007508D600E930F5001F
:100630000F30F6008C315A24823176084101D900FE
:100640007508D800EA30F5000F30F6008C315A24D6
:10065000823176084101DB007508DA00EB30F500E5
:100660000F30F6008C315A24823176084101DD00CA
:100670007508DC00EC30F5000F30F6008C315A24A0
:10068000823176084101DF007508DE00ED30F500AB
:100690000F30F6008C315A24823176084101E10096
:1006A0007508E000EE30F5000F30F6008C315A246A
:1006B00076084101E3007508E2000800E401E50165
:1006C000E101E201E301E601DC010030DB00003082
:1006D000DA000030D9000030D80082316022833146
:1006E0004001980118157D018D014001121112126F
:1006F0008C31712483318C31C524833178084001D9
:10070000EA007708E90041016308F1006208F0009F
:100710008B31C023833140011811921241015D08D1
:10072000F1005C08F0008B31C02383314001921648
:100730001D3043018C0064004E01121B92146300B3
:1007400000004101901FAA2B4E010C0885310225A3
:1007500083319B2B6108803A4001D70080305702DB
:10076000031DB52B013041016002031CF02B10303A
:100770004001D8070030D93DDA3DDB3D410160083A
:10078000F0006108F100890D893B8909F200F3004E
:100790000030F7000130F6005130F5008030F400F1
:1007A0008E310D268331730840015B02031DE22B5D
:1007B00072085A02031DE22B71085902031DE22B35
:1007C00070085802031CF02B0030DB000030DA0008
:1007D0000030D9000030D8008B31B42383319B2BFB
:1007E00040016A08FD006908FC008E31E326833170
:1007F0007D08E8007C08E700813118218331C8308A
:100800008600003087005631403F2007DF00413F1F
:10081000213DE0000130DD006008803AD700410151
:100820005908803A40015702031D1A2C410158080B
:1008300040015F0203182D2C41015B08803A400102
:10084000D7006008803A5702031D292C5F08410138
:100850005A0203182D2C4001DD0140015D080319E7
:10086000332C0130342C0030DE005E080319412C9B
:10087000181518160130E300E401E501E101E20179
:10088000FF2C6008F1005F08F0008C31E324833115
:10089000680841015102031D512C400167084101C4
:1008A00050020318722C4001E201610A03195A2C0C
:1008B0000130E1076608031D8E2C41015308F10049
:1008C0005208F0008B31E723833140016108D700E3
:1008D0007108031D6D2C70085702031C8E2C01300B
:1008E000E6008E2C4001E101620A0319792C0130E7
:1008F000E207660803198E2C41015308F1005208E3
:10090000F0008B31E723833140016208D700710882
:10091000031D8C2C700857020318E6016608031D9E
:1009200018165C080319A52C41014908400168020A
:10093000031D9E2C4101480840016702031CFD2C49
:100940008B31CD238331E301FD2C41014908400166
:100950006802031DAF2C41014808400167020318DB
:10096000D02CE501640A0319B72C0130E4076308B1
:10097000031DFF2C41014D08F1004C08F0008B31A4
:10098000E723833140016408D7007108031DCA2C96
:1009900070085702031CFF2C18150130E300FF2CD0
:1009A000680841014B02031DD92C40016708410131
:1009B0004A020318FC2C4001E401650A0319E22CE9
:1009C0000130E50763080319FF2C41014F08F100CE
:1009D0004E08F0008B31E723833140016508D700D2
:1009E0007108031DF52C70085702031CFF2C8B3176
:1009F000CD238331E301FF2C4001E401E5015E08D2
:100A0000DC009B2B8D31E22585314001D10051085E
:100A100003190800A030F0008D3103258531A03086
:100A2000F0009E30F1008930F2000430F300003015
:100A3000F4008E31A026853170087104031D1C2F2F
:100A4000A4304001D5005508F000A830F1008930ED
:100A5000F2008D31902585317008710403193D2D08
:100A60005508F000F730F1008830F2008D31902504
:100A7000853170087104031D6C2D81311821853179
:100A8000C8308600003087005631403F2007CD0037
:100A9000413F213DCE004E08F8004D08F70045309B
:100AA000F9008031142085315508F100F2018C31B4
:100AB0001B2485313D308B31AD2385314530F1002C
:100AC0000030F2008C311B2485313730F100893041
:100AD000F2008C311B2408005508F0007D30F10035
:100AE0008930F2008D319025853170087104031929
:100AF000862D5508F0000C30F1008930F2008D3160
:100B00009025853170087104031DB22D6A08FD001F
:100B10006908FC008E31E32685317D08D0007C0811
:100B2000CF005008F8004F08F7004530F900803139
:100B3000142085315508F100F2018C311B248531D8
:100B40003D308B31AD2385314530F1000030F2006E
:100B50008C311B2485313730F1008930F2008C3123
:100B60001B2408005508F0008530F1008930F200A0
:100B70008D3190258531700871040319CC2D5508ED
:100B8000F000B130F1008930F2008D3190258531CF
:100B900070087104031DD92D5508F100F2018C3144
:100BA0001B2485313030F1008930F2008C311B2458
:100BB00008005508F0009330F1008930F2008D31C3
:100BC0009025853170087104031DA72E4430F10073
:100BD0008930F2008C311B24853141014908FD0028
:100BE0004808FC00803104208531AD30F1008930A7
:100BF000F2008C311B24853141014B08FD004A086D
:100C0000FC00803104208531AD30F1008930F200E4
:100C10008C311B24853141015108FD005008FC0036
:100C20008031042085313730F1008930F2008C3179
:100C30001B2485316230F1008930F2008C311B2495
:100C4000853141014D08FD004C08FC008031042035
:100C50008531AD30F1008930F2008C311B248531B3
:100C600041014F08FD004E08FC0080310420853111
:100C7000AD30F1008930F2008C311B248531410107
:100C80005308FD005208FC008031042085313730C4
:100C9000F1008930F2008C311B2485313A30F100AB
:100CA0008930F2008C311B24853141015B08FD0045
:100CB0005A08FC00803104208531AD30F1008930C4
:100CC000F2008C311B24853141015508FD00540888
:100CD000FC00803104208531AD30F1008930F20014
:100CE0008C311B24853141015708FD005608FC005A
:100CF000803104208531AD30F1008930F2008C3133
:100D00001B24853141015908FD005808FC00803141
:100D1000042085313730F1008930F2008C311B24FA
:100D20008531DF30F1008830F2008C311B248531B1
:100D300041016108FD006008FC008031042085311C
:100D40003730F1008930F2008C311B240800D601C5
:100D50005508F0005608C000C101C035C10DC035AE
:100D6000C10DC035C10D0030400784000830413D41
:100D700080388500003FF100013FF2008D31902561
:100D8000853170087104031D0F2F5608C000C10182
:100D9000C035C10DC035C10DC035C10D0230400791
:100DA00084000830413D80388500003FC200013F8B
:100DB000C3004208860043088700403FF700413FD8
:100DC000F8004530F9008031142085315608C00004
:100DD000C101C035C10DC035C10DC035C10D0030D8
:100DE000400784000830413D80388500003FF10015
:100DF000013FF2008C311B2485313D308B31AD2316
:100E000085314530F1000030F2008C311B248531F2
:100E10003730F1008930F2008C311B24080001309A
:100E2000D6070E305602031CA82E8D30F1008930F3
:100E3000F2008C311B240800A030F000A330F10038
:100E40008930F2000430F3000030F4008E31A02627
:100E5000853170087104031DEC2FA430F0002030A0
:100E6000F1000030F2008C31092485314001D200BC
:100E70005208031D422F8D30F1008930F2008C3171
:100E80001B2408005208860087018101D601A43086
:100E9000F0005608C000C101C035C10DC035C10DFC
:100EA000C035C10D0030400784000830413D803816
:100EB0008500003FF100013FF2008D319025853122
:100EC00070087104031DDF2F5208013EFC005330EF
:100ED000FD00803180208531003A0319D82F400170
:100EE0005608C000C101C035C10DC035C10DC035A7
:100EF000C10D0430400784000830413D8038850032
:100F0000003FC200013FC3005408803AC4004308B8
:100F1000803A4402031D8E2F42085302031CD82F2F
:100F200040015608C000C101C035C10DC035C10D1A
:100F3000C035C10D0630400784000830413D80387F
:100F40008500003FC200013FC3004308803AC4004F
:100F50005408803A4402031DAF2F53084202031C79
:100F6000D82F40015608C000C101C035C10DC035A1
:100F7000C10DC035C10D0230400784000830413D2D
:100F800080388500003FC200013FC3004208860050
:100F9000430887005308C03F5408C13F8131B32143
:100FA00085319930F1008930F2008C311B24080022
:100FB0008D30F1008930F2008C311B2408000130A3
:100FC000D6070E305602031C472F8D30F1008930B2
:100FD000F2008C311B2408008D30F1008930F200C2
:100FE0008C311B2408004001E901EA01A030840093
:100FF0000030850044308B31A723400183315E2BC4
:1010000025348934C834003400340034FF341F34AC
:1010100058348934CA34003400340034FF341F3467
:101020004E348934CC34003400340034F0340F347E
:1010300074348934CE34003400340034F0340F3446
:1010400003348934D034003400340034FF341F3486
:101050001A348934D234003400340034F0340F347C
:101060000F348934D43400340034E034FF341F3476
:10107000EB348834D63400340034E034FF341F3489
:101080008C348834D83400340034E034FF341F34D6
:101090009F348834DA3400340034E034FF341F34B1
:1010A000C2348834DC34003400340034FF341F345C
:1010B000D1348834DE3400340034E034FF341F345B
:1010C0006B348934E034003400340034FF341F348E
:1010D000B1348834E234003400340034FF341F3437
:1010E000E4340C34D8340E34583402340034003430
:1010F000B834103400340034003400342F34003459
:1011000041340034EC34FF34E8340334FE34FF342B
:101110000034003488341334543445344D3450345E
:101120005F34443441344E344734453452345F34B0
:1011300048344934473448345F34433400345434F9
:1011400045344D3450345F34443441344E344734A4
:10115000453452345F344C344F3457345F34433465
:1011600000344234413454345F34433455345434BD
:101170005F34503455344C34533445345F344D343B
:1011800053340034523445345334453454345F348A
:10119000503455344C34533445345F344D34533427
:1011A0000034543445344D3450345F344F34463475
:1011B00046345334453454345F3443340034523469
:1011C000453442344F344F3454345F344434203443
:1011D0003A3420340034543445344D3450345F3480
:1011E00048344934473448345F3443340034543449
:1011F00045344D34503445345234413454345534EC
:101200005234453400344234413454345F34483429
:101210004934473448345F344D3456340034543400
:1012200045344D3450345F344C344F3457345F348C
:10123000433400344234413454345F344834493404
:10124000473448345F3453340034423441345434E6
:101250005F344C344F3457345F344D34563400349B
:101260003D34763438342E3432342E3436340D3422
:101270000A340034543445344D3450345F344334EC
:1012800020343A34203400344234413454345F340E
:101290004D34563420343A3420340034423441340E
:1012A00054345F344C344F3457345F345334003447
:1012B0004234413454345F344F344B345F344D3412
:1012C000563400344234413454345F34533420347F
:1012D0003A34203400345234453442344F344F349D
:1012E00054345F34443400344234413454345F3431
:1012F0004F344B345F345334003456344F344C3411
:10130000543441344734453400345634453452342F
:10131000533449344F344E3400344534523452340B
:101320000D340A34003449344E3446344F34533487
:1013300000344F344B340D340A34003447344534D0
:10134000543420340034533445345434203400347D
:10135000543445344D345034003420343B3420343C
:0A1360000034563445345234003492
:10174E00640080010131890BA82B0034F0004E019A
:10175E00911CAE2B70088D0008001815410163080E
:10176E00F1006208F0008B31C0238B318B31CD2319
:10177E00080070087104031908005330890BC52B3B
:10178E0000000130F0020030F13BC02B4001181177
:10179E00921241015D08F1005C08F0008B31C0230C
:1017AE004001921608007608F1007508F000F2016B
:1017BE00F20A8C312F247108F6007008F50008002B
:1017CE0070080F3EF2000030713DF300720E0F39BB
:1017DE00F000730EF039F004730E0F39F1000800AB
:1017EE007901101371088D0070088C0010161015F9
:1017FE008B1355309100AA30910090148B17101254
:10180E001011080070088600870101087106031D7B
:10181E00122C70080800700886008701F00A010873
:10182E00031D092C00300800710884007208850021
:10183E001200031908007108840072088500000860
:10184E008B31AD238C310130F1070030F23D1B2C72
:10185E00720C7901031C10130318101771088D00F8
:10186E0070088C0010140F08F4000E08F30010130B
:10187E007408F1007308F00008007808F600770885
:10188E00F5008B31DA238C317608FA007508F900F1
:10189E00FA1E552C0030F904C030FA047A08F8000C
:1018AE007908F70008007608F1007508F000F201DB
:1018BE008C312F248C317108F8007008F700F81E57
:1018CE006C2C0030F704C030F8047808F600770866
:1018DE00F50008007D010C108C10400112109214BE
:1018EE0013307B018C0001307C01C20000304E01B0
:1018FE008F000C308E0011121111921190171016CC
:10190E00911641019A170B1708001530F700813018
:10191E00F8008C3144248C317B08860087017708CF
:10192E00C03F7808C13F1730F7008130F8008C3186
:10193E0044247C08860087017708C03F7808C13FA1
:10194E000800F5007A012608F3390438A600261699
:10195E007008AB0075089F007208A2007108A10004
:10196E00A61726142618B92C1E08F4001D08F3001D
:10197E00A6137408F1007308F00008001830F50083
:10198E008130F6008B31DA238C317608FA00750837
:10199E00F90079087A040319DA2C790A3F30031911
:1019AE007A06031DDE2C0030F9000430FA007A08A6
:1019BE00F8007908F70008007108803AF20041013A
:1019CE005508803A7202031DEE2C54087002031C57
:1019DE00FD2C41015708803AF2007108803A7202DC
:1019EE00031DFB2C700856020318002D400118161B
:1019FE0008004001181208007008860087010108CF
:101A0E000319080070088600870161300102031C6B
:101A1E00202D7008860087017B3001020318202DCF
:101A2E007008860087017008840085010008E03E7A
:101A3E0081000130F007032DF430F1000130F20087
:101A4E004101901B392D71087204031D302D003099
:101A5E0008005330890B312D00000130F1020030A7
:101A6E00F23B272D7008860087014E010C0881007D
:101A7E00901C432D1012101601300800F501F601CE
:101A8E00F701710877020318632D7708F200013011
:101A9E00F235890B4F2D7008720786008701403F83
:101AAE00F300413FF40075087307F5007608743DA6
:101ABE00F6000130F707482DFF307505F0003F3076
:101ACE007605F10008000030F6000030F700003017
:101ADE00F800701C782D7308F6077408F73D75082A
:101AEE00F83D0130F335F40DF50D890B792D0130EC
:101AFE00F236F10CF00C890B7F2D72087104700414
:101B0E00031D702D7608F0007708F1007808F200BA
:101B1E0008009D2D70088600870101080319AA2D63
:101B2E000130F0070130F1070030F23D71088400FA
:101B3E00720885000008F30070088600870101080E
:101B4E0073060319912D70088600870171088400B1
:101B5E007208850000080102F000F101031CF10378
:101B6E000800700871040319DD2D0130F400F11B1B
:101B7E00C82D0130F035F10D890BC12D0130F40760
:101B8E00BE2D71087302031DCE2D70087202031C48
:101B9E00D42D7008F2027108F33B0130F136F00CCF
:101BAE00890BD52D0130F402031DC82D7308F100E9
:101BBE007208F0000800F4017330F0008D31232517
:101BCE008D31003A03190B2E64000D307306031984
:101BDE00F42D0A307306031DFE2D74080319E32D30
:101BEE007408A03E86008701810174080800273022
:101BFE0074020318E32D7408A03E86008701730853
:101C0E0081000130F407E32D003008000030FB00A6
:101C1E000030FA000030F9000030F800701C1F2E62
:101C2E007408F8077508F93D7608FA3D7708FB3D0C
:101C3E000130F435F50DF60DF70D890B202E013020
:101C4E00F336F20CF10CF00C890B272E730872048C
:101C5E0071047004031D152E7B08F3007A08F20040
:101C6E007908F1007808F0000800F401F501700819
:101C7E0071040319692E0130F600F11B4E2E01304E
:101C8E00F035F10D890B472E0130F607442E013049
:101C9E00F435F50D890B4F2E71087302031D592E65
:101CAE0070087202031C602E7008F2027108F33B7A
:101CBE0074140130F136F00C890B612E0130F602EE
:101CCE00031D4E2E7508F1007408F0000800101365
:101CDE0010159016F6017308760203189E2E7608DC
:101CEE007007F40071080318710AF50074088C006F
:101CFE0075088D007608F4000130F435890B842EBA
:101D0E007208740786008701403F8E00413F8F00A6
:101D1E007308FF3E7606031990128B13553091000F
:101D2E00AA30910090148B170130F607722E101105
:101D3E0008000130F3020030F43B730A031DCF2E6E
:101D4E00740A031DCF2EF001F10108007108840002
:101D5E007208850012000319D52E73087404031936
:101D6E00D52E71088400720885000008F5007008F1
:101D7E008600870101087506031DD52E0130F00778
:101D8E000130F1070030F23D0130F3020030F43B38
:101D9E007008860087010108031DAD2E70088600AD
:101DAE008701710884007208850000080102F000A6
:101DBE00F101031CF103080044010C08FC39013841
:101DCE008C008C170C1FE92EF0012030F100003032
:101DDE00F2003E308C31A8248E3171084001AE00E5
:101DEE007008AD0044018C1340012D082E04031D14
:101DFE00032FFC01FD0108002D08A0002E08A100F4
:101E0E00A201A3017C08F0007D08F100F201F301AC
:101E1E000030F7000030F6000330F500FF30F4001C
:101E2E008E310D268E3173084001A7007208A60070
:101E3E007108A5007008A4008F312A272108FD0023
:101E4E002008FC0008000030AB000030AA00003073
:101E5E00A9000030A800230822042104200403193D
:101E6E00712F0130AC00A31B462F0130A035A10D00
:101E7E00A20DA30D890B3D2F0130AC073A2F013077
:101E8E00A835A90DAA0DAB0D890B472F23082702E4
:101E9E00031D5B2F22082602031D5B2F210825023E
:101EAE00031D5B2F20082402031C662F2008A402AA
:101EBE002108A53B2208A63B2308A73B2814013086
:101ECE00A336A20CA10CA00C890B672F0130AC021B
:101EDE00031D462F2B08A3002A08A2002908A100E3
:101EEE002808A0000800F701F21F872FF009F1095A
:101EFE00F209F00A0319F10A0319F20A0130F70088
:101F0E00F51F932FF309F409F509F30A0319F40ADF
:101F1E000319F50A0130F7060030F8000030F90019
:101F2E000030FA007208710470040319CE2F0130CC
:101F3E00F600F21BAB2F0130F035F10DF20D890BCF
:101F4E00A32F0130F607A02F0130F835F90DFA0D49
:101F5E00890BAC2F72087502031DBB2F710874021A
:101F6E00031DBB2F70087302031CC42F7008F302ED
:101F7E007108F43B7208F53B78140130F236F10C1F
:101F8E00F00C890BC52F0130F602031DAB2F77081D
:101F9E000319D92FF809F909FA09F80A0319F90AE8
:101FAE000319FA0A7808F0007908F1007A08F200AD
:021FBE00080019
:020000040001F9
:08000E00EC1F3F3FBF07FF3F5D
:00000001FF
