:040000000128FE2FA6
:100CDC007901101781308D0018308C0010140F081A
:100CEC00F3000E08F20010137208730403197F2E20
:100CFC00802E882E720A3F3003197306031D872E2F
:100D0C00882E8C2E0030F2000430F3007308F100B2
:100D1C007208F00008000030FB000030FA000030D0
:100D2C00F9000030F800701C9C2E9D2EA52E740826
:100D3C00F8077508F93D7608FA3D7708FB3D013058
:100D4C00F435F50DF60DF70D890BA62E0130F336A3
:100D5C00F20CF10CF00C890BAD2E730872047104BB
:100D6C007004031DBA2EBB2E992E7B08F3007A0853
:100D7C00F2007908F1007808F0000800003040011A
:100D8C00AB000030AA000030A9000030A8002308F6
:100D9C002204210420040319D42ED52E142F013043
:100DAC00AC00E12E0130A035A10DA20DA30D890BD5
:100DBC00D92E0130AC07A31FE42EE52ED82E01301E
:100DCC00A835A90DAA0DAB0D890BE62E2308270219
:100DDC00031DFA2E22082602031DFA2E21082502D5
:100DEC00031DFA2E20082402031CFD2EFE2E072FB5
:100DFC002008A4022108A53B2208A63B2308A73BF8
:100E0C0028140130A336A20CA10CA00C890B082FBE
:100E1C000130AC02031D132F142FE52E2B08A30059
:100E2C002A08A2002908A1002808A00008004401F3
:100E3C000C08FC3901388C008C170C1F262F272F1F
:100E4C00232F7A012608F3390438A6002616AB01A5
:100E5C003E309F000030A2002030A100A6172614BF
:100E6C002618392F3A2F362F1E084001AE007A0172
:100E7C001D084001AD007A01A61344018C134001FA
:100E8C002D082E04031D4B2F4C2F512FFF30FC002F
:100E9C00FF30FD00792F2D08A0002E08A100A20123
:100EAC00A3017C08F0007D08F100F201F301003091
:100EBC00F7000030F6000330F500FF30F400863107
:100ECC009126873173084001A7007208A6007108AB
:100EDC00A5007008A4008631C42687314001210882
:100EEC00FD002008FC0008004001B701B501980185
:100EFC007D018D01400112109210121186316E2667
:100F0C00873171084001B2007008B10092160430AC
:100F1C004001B000CF30AF000130890B932FAF0BE5
:100F2C00932FB00B932F0032400112160130B600F4
:100F3C001F3043018C006400630000004001320844
:100F4C00FD003108FC0087311D2787317D084001E9
:100F5C00B4007C08B3000D3034024830031933025E
:100F6C000318B92FBA2FD12FB501370A0319BF2F88
:100F7C00C02FC22F0130B70736080319C62FC72F51
:100F8C00A12F13303702031CCC2FCD2FA12F92127F
:100F9C001212B601A12F0E303402D93003193302CC
:100FAC00031CD92FDA2FFA2FB701350A0319DF2FBB
:100FBC00E02FE22F0130B5073608031DE62FE72F8F
:100FCC00A12F921604304001B000CF30AF00013099
:100FDC00890BEE2FAF0BEE2FB00BEE2F0032400132
:100FEC0012160130B600A12FB701B501A12F0128AF
:040FFC0040017A2F07
:020000040001F9
:08000E00EC1F3F3FBF07FF3F5D
:00000001FF
