:08000000803102288731FD2F39
:100CD8007901101781308D0018308C0010140F081E
:100CE800F3000E08F20010137208730403197D2E26
:100CF8007E2E862E720A3F3003197306031D852E39
:100D0800862E8A2E0030F2000430F3007308F100BA
:100D18007208F00008000030FB000030FA000030D4
:100D2800F9000030F800701C9A2E9B2EA32E740830
:100D3800F8077508F93D7608FA3D7708FB3D01305C
:100D4800F435F50DF60DF70D890BA42E0130F336A9
:100D5800F20CF10CF00C890BAB2E730872047104C1
:100D68007004031DB82EB92E972E7B08F3007A085D
:100D7800F2007908F1007808F0000800003040011E
:100D8800AB000030AA000030A9000030A8002308FA
:100D98002204210420040319D22ED32E122F01304D
:100DA800AC00DF2E0130A035A10DA20DA30D890BDB
:100DB800D72E0130AC07A31FE22EE32ED62E01302A
:100DC800A835A90DAA0DAB0D890BE42E230827021F
:100DD800031DF82E22082602031DF82E21082502DD
:100DE800031DF82E20082402031CFB2EFC2E052FC1
:100DF8002008A4022108A53B2208A63B2308A73BFC
:100E080028140130A336A20CA10CA00C890B062FC4
:100E18000130AC02031D112F122FE32E2B08A30063
:100E28002A08A2002908A1002808A00008004401F7
:100E38000C08FC3901388C008C170C1F242F252F27
:100E4800212F7A012608F3390438A6002616AB01AB
:100E58003E309F000030A2002030A100A6172614C3
:100E68002618372F382F342F1E084001AE007A017C
:100E78001D084001AD007A01A61344018C134001FE
:100E88002D082E04031D492F4A2F4F2FFF30FC0039
:100E9800FF30FD00772F2D08A0002E08A100A20129
:100EA800A3017C08F0007D08F100F201F301003095
:100EB800F7000030F6000330F500FF30F40086310B
:100EC8008F26873173084001A7007208A6007108B1
:100ED800A5007008A4008631C22687314001210888
:100EE800FD002008FC0008004001B701B501980189
:100EF8007D018D01400112109210121186316C266D
:100F0800873171084001B2007008B10092160430B0
:100F18004001B000CF30AF000130890B912FAF0BEB
:100F2800912FB00B912F0032400112160130B600FC
:100F38001F3043018C006400630000004001320848
:100F4800FD003108FC0087311B2787317D084001EF
:100F5800B4007C08B3000D30340248300319330262
:100F68000318B72FB82FCF2FB501370A0319BD2F94
:100F7800BE2FC02F0130B70736080319C42FC52F5D
:100F88009F2F13303702031CCA2FCB2F9F2F92128B
:100F98001212B6019F2F0E303402D93003193302D2
:100FA800031CD72FD82FF82FB701350A0319DD2FC7
:100FB800DE2FE02F0130B5073608031DE42FE52F9B
:100FC8009F2F921604304001B000CF30AF0001309F
:100FD800890BEC2FAF0BEC2FB00BEC2F003240013C
:100FE80012160130B6009F2FB701B5019F2F80312F
:080FF800022840018731782F27
:020000040001F9
:08000E00EC1F3F3FBF07FF3F5D
:00000001FF
