:040000000128FE2FA6
:100CD0007901101781308D0018308C0010140F0826
:100CE000F3000E08F2001013720873040319792E32
:100CF0007A2E822E720A3F3003197306031D812E4D
:100D0000822E862E0030F2000430F3007308F100CA
:100D10007208F00008000030FB000030FA000030DC
:100D2000F9000030F800701C962E972E9F2E740844
:100D3000F8077508F93D7608FA3D7708FB3D013064
:100D4000F435F50DF60DF70D890BA02E0130F336B5
:100D5000F20CF10CF00C890BA72E730872047104CD
:100D60007004031DB42EB52E932E7B08F3007A0871
:100D7000F2007908F1007808F00008000030400126
:100D8000AB000030AA000030A9000030A800230802
:100D90002204210420040319CE2ECF2E0E2F013061
:100DA000AC00DB2E0130A035A10DA20DA30D890BE7
:100DB000D32E0130AC07A31FDE2EDF2ED22E013042
:100DC000A835A90DAA0DAB0D890BE02E230827022B
:100DD000031DF42E22082602031DF42E21082502ED
:100DE000031DF42E20082402031CF72EF82E012FD9
:100DF0002008A4022108A53B2208A63B2308A73B04
:100E000028140130A336A20CA10CA00C890B022FD0
:100E10000130AC02031D0D2F0E2FDF2E2B08A30077
:100E20002A08A2002908A1002808A00008004401FF
:100E30000C08FC3901388C008C170C1F202F212F37
:100E40001D2F7A012608F3390438A6002616AB01B7
:100E50003E309F000030A2002030A100A6172614CB
:100E60002618332F342F302F1E084001AE007A0190
:100E70001D084001AD007A01A61344018C13400106
:100E80002D082E04031D452F462F4B2FFF30FC004D
:100E9000FF30FD00732F2D08A0002E08A100A20135
:100EA000A3017C08F0007D08F100F201F30100309D
:100EB000F7000030F6000330F500FF30F400863113
:100EC0008B26873173084001A7007208A6007108BD
:100ED000A5007008A4008631BE2687314001210894
:100EE000FD002008FC0008004001B601B701980190
:100EF0007D018D0140011210921012118631682679
:100F0000873171084001B2007008B10092160430B8
:100F10004001B000CF30AF000130890B8D2FAF0BF7
:100F20008D2FB00B8D2F0032400112160130B5000D
:100F30001F3043018C006400630000004001320850
:100F4000FD003108FC008731172787317D084001FB
:100F5000B4007C08B3000D3034024830031933026A
:100F60000318B32FB42FCB2FB701360A0319B92FAB
:100F7000BA2FBC2F0130B60735080319C02FC12F77
:100F80009B2F13303602031CC62FC72F9B2F9212A4
:100F90001212B5019B2F0E30340275300319330243
:100FA000031CD32FD42FFA2FB601370A0319D92FD8
:100FB000DA2FDC2F0130B7073508031DE02FE12FB2
:100FC0009B2F04303702031CE62FE72F9B2F92162E
:100FD00004304001B000CF30AF000130890BEE2F5C
:100FE000AF0BEE2FB00BEE2F003240011216013086
:100FF000B5009B2FB601B7019B2F01284001742F2C
:020000040001F9
:08000E00EC1F3F3FBF07FF3F5D
:00000001FF
